{
  "contractName": "ProofOfPhysicalAddress",
  "abi": [
    {
      "constant": true,
      "inputs": [],
      "name": "signer",
      "outputs": [
        {
          "name": "",
          "type": "address"
        }
      ],
      "payable": false,
      "stateMutability": "view",
      "type": "function"
    },
    {
      "constant": true,
      "inputs": [],
      "name": "totalConfirmed",
      "outputs": [
        {
          "name": "",
          "type": "uint64"
        }
      ],
      "payable": false,
      "stateMutability": "view",
      "type": "function"
    },
    {
      "constant": true,
      "inputs": [],
      "name": "registry",
      "outputs": [
        {
          "name": "",
          "type": "address"
        }
      ],
      "payable": false,
      "stateMutability": "view",
      "type": "function"
    },
    {
      "constant": true,
      "inputs": [],
      "name": "owner",
      "outputs": [
        {
          "name": "",
          "type": "address"
        }
      ],
      "payable": false,
      "stateMutability": "view",
      "type": "function"
    },
    {
      "constant": true,
      "inputs": [
        {
          "name": "",
          "type": "address"
        }
      ],
      "name": "users",
      "outputs": [
        {
          "name": "creationBlock",
          "type": "uint256"
        }
      ],
      "payable": false,
      "stateMutability": "view",
      "type": "function"
    },
    {
      "constant": true,
      "inputs": [],
      "name": "totalUsers",
      "outputs": [
        {
          "name": "",
          "type": "uint64"
        }
      ],
      "payable": false,
      "stateMutability": "view",
      "type": "function"
    },
    {
      "constant": true,
      "inputs": [],
      "name": "totalAddresses",
      "outputs": [
        {
          "name": "",
          "type": "uint64"
        }
      ],
      "payable": false,
      "stateMutability": "view",
      "type": "function"
    },
    {
      "inputs": [
        {
          "name": "_registry",
          "type": "address"
        }
      ],
      "payable": false,
      "stateMutability": "nonpayable",
      "type": "constructor"
    },
    {
      "anonymous": false,
      "inputs": [
        {
          "indexed": false,
          "name": "newSigner",
          "type": "address"
        }
      ],
      "name": "LogSignerChanged",
      "type": "event"
    },
    {
      "anonymous": false,
      "inputs": [
        {
          "indexed": false,
          "name": "newRegistry",
          "type": "address"
        }
      ],
      "name": "LogRegistryChanged",
      "type": "event"
    },
    {
      "anonymous": false,
      "inputs": [
        {
          "indexed": true,
          "name": "wallet",
          "type": "address"
        },
        {
          "indexed": false,
          "name": "keccakIdentifier",
          "type": "bytes32"
        }
      ],
      "name": "LogAddressRegistered",
      "type": "event"
    },
    {
      "anonymous": false,
      "inputs": [
        {
          "indexed": true,
          "name": "wallet",
          "type": "address"
        },
        {
          "indexed": false,
          "name": "keccakIdentifier",
          "type": "bytes32"
        }
      ],
      "name": "LogAddressUnregistered",
      "type": "event"
    },
    {
      "anonymous": false,
      "inputs": [
        {
          "indexed": true,
          "name": "wallet",
          "type": "address"
        },
        {
          "indexed": false,
          "name": "keccakIdentifier",
          "type": "bytes32"
        }
      ],
      "name": "LogAddressConfirmed",
      "type": "event"
    },
    {
      "anonymous": false,
      "inputs": [
        {
          "indexed": false,
          "name": "token",
          "type": "address"
        },
        {
          "indexed": false,
          "name": "to",
          "type": "address"
        },
        {
          "indexed": false,
          "name": "amount",
          "type": "uint256"
        }
      ],
      "name": "LogClaimedTokens",
      "type": "event"
    },
    {
      "constant": true,
      "inputs": [
        {
          "name": "data",
          "type": "bytes32"
        },
        {
          "name": "v",
          "type": "uint8"
        },
        {
          "name": "r",
          "type": "bytes32"
        },
        {
          "name": "s",
          "type": "bytes32"
        }
      ],
      "name": "signerIsValid",
      "outputs": [
        {
          "name": "",
          "type": "bool"
        }
      ],
      "payable": false,
      "stateMutability": "view",
      "type": "function"
    },
    {
      "constant": false,
      "inputs": [
        {
          "name": "newSigner",
          "type": "address"
        }
      ],
      "name": "setSigner",
      "outputs": [],
      "payable": false,
      "stateMutability": "nonpayable",
      "type": "function"
    },
    {
      "constant": false,
      "inputs": [
        {
          "name": "newRegistry",
          "type": "address"
        }
      ],
      "name": "setRegistry",
      "outputs": [],
      "payable": false,
      "stateMutability": "nonpayable",
      "type": "function"
    },
    {
      "constant": false,
      "inputs": [
        {
          "name": "amountWei",
          "type": "uint256"
        }
      ],
      "name": "withdrawSome",
      "outputs": [],
      "payable": false,
      "stateMutability": "nonpayable",
      "type": "function"
    },
    {
      "constant": false,
      "inputs": [],
      "name": "withdrawAll",
      "outputs": [],
      "payable": false,
      "stateMutability": "nonpayable",
      "type": "function"
    },
    {
      "constant": true,
      "inputs": [
        {
          "name": "wallet",
          "type": "address"
        }
      ],
      "name": "userExists",
      "outputs": [
        {
          "name": "",
          "type": "bool"
        }
      ],
      "payable": false,
      "stateMutability": "view",
      "type": "function"
    },
    {
      "constant": true,
      "inputs": [
        {
          "name": "wallet",
          "type": "address"
        },
        {
          "name": "addressIndex",
          "type": "uint256"
        }
      ],
      "name": "userAddressConfirmed",
      "outputs": [
        {
          "name": "",
          "type": "bool"
        }
      ],
      "payable": false,
      "stateMutability": "view",
      "type": "function"
    },
    {
      "constant": true,
      "inputs": [
        {
          "name": "wallet",
          "type": "address"
        },
        {
          "name": "creationBlock",
          "type": "uint256"
        }
      ],
      "name": "userAddressByCreationBlock",
      "outputs": [
        {
          "name": "",
          "type": "bool"
        },
        {
          "name": "",
          "type": "uint256"
        },
        {
          "name": "",
          "type": "bool"
        }
      ],
      "payable": false,
      "stateMutability": "view",
      "type": "function"
    },
    {
      "constant": true,
      "inputs": [
        {
          "name": "wallet",
          "type": "address"
        },
        {
          "name": "confirmationCodeSha3",
          "type": "bytes32"
        }
      ],
      "name": "userAddressByConfirmationCode",
      "outputs": [
        {
          "name": "",
          "type": "bool"
        },
        {
          "name": "",
          "type": "uint256"
        },
        {
          "name": "",
          "type": "bool"
        },
        {
          "name": "",
          "type": "bytes32"
        }
      ],
      "payable": false,
      "stateMutability": "view",
      "type": "function"
    },
    {
      "constant": true,
      "inputs": [
        {
          "name": "wallet",
          "type": "address"
        },
        {
          "name": "country",
          "type": "string"
        },
        {
          "name": "state",
          "type": "string"
        },
        {
          "name": "city",
          "type": "string"
        },
        {
          "name": "location",
          "type": "string"
        },
        {
          "name": "zip",
          "type": "string"
        }
      ],
      "name": "userAddressByAddress",
      "outputs": [
        {
          "name": "",
          "type": "bool"
        },
        {
          "name": "",
          "type": "uint256"
        },
        {
          "name": "",
          "type": "bool"
        }
      ],
      "payable": false,
      "stateMutability": "view",
      "type": "function"
    },
    {
      "constant": true,
      "inputs": [
        {
          "name": "wallet",
          "type": "address"
        },
        {
          "name": "keccakIdentifier",
          "type": "bytes32"
        }
      ],
      "name": "userAddressByKeccakIdentifier",
      "outputs": [
        {
          "name": "",
          "type": "bool"
        },
        {
          "name": "",
          "type": "uint256"
        },
        {
          "name": "",
          "type": "bool"
        }
      ],
      "payable": false,
      "stateMutability": "view",
      "type": "function"
    },
    {
      "constant": true,
      "inputs": [
        {
          "name": "wallet",
          "type": "address"
        }
      ],
      "name": "userLastSubmittedName",
      "outputs": [
        {
          "name": "",
          "type": "string"
        }
      ],
      "payable": false,
      "stateMutability": "view",
      "type": "function"
    },
    {
      "constant": true,
      "inputs": [
        {
          "name": "wallet",
          "type": "address"
        }
      ],
      "name": "userLastConfirmedName",
      "outputs": [
        {
          "name": "",
          "type": "string"
        }
      ],
      "payable": false,
      "stateMutability": "view",
      "type": "function"
    },
    {
      "constant": true,
      "inputs": [
        {
          "name": "wallet",
          "type": "address"
        }
      ],
      "name": "userSubmittedAddressesCount",
      "outputs": [
        {
          "name": "",
          "type": "uint256"
        }
      ],
      "payable": false,
      "stateMutability": "view",
      "type": "function"
    },
    {
      "constant": true,
      "inputs": [
        {
          "name": "wallet",
          "type": "address"
        }
      ],
      "name": "userConfirmedAddressesCount",
      "outputs": [
        {
          "name": "",
          "type": "uint256"
        }
      ],
      "payable": false,
      "stateMutability": "view",
      "type": "function"
    },
    {
      "constant": true,
      "inputs": [
        {
          "name": "wallet",
          "type": "address"
        },
        {
          "name": "addressIndex",
          "type": "uint256"
        }
      ],
      "name": "userAddress",
      "outputs": [
        {
          "name": "country",
          "type": "string"
        },
        {
          "name": "state",
          "type": "string"
        },
        {
          "name": "city",
          "type": "string"
        },
        {
          "name": "location",
          "type": "string"
        },
        {
          "name": "zip",
          "type": "string"
        }
      ],
      "payable": false,
      "stateMutability": "view",
      "type": "function"
    },
    {
      "constant": true,
      "inputs": [
        {
          "name": "wallet",
          "type": "address"
        },
        {
          "name": "addressIndex",
          "type": "uint256"
        }
      ],
      "name": "userAddressInfo",
      "outputs": [
        {
          "name": "name",
          "type": "string"
        },
        {
          "name": "creationBlock",
          "type": "uint256"
        },
        {
          "name": "confirmationBlock",
          "type": "uint256"
        },
        {
          "name": "keccakIdentifier",
          "type": "bytes32"
        }
      ],
      "payable": false,
      "stateMutability": "view",
      "type": "function"
    },
    {
      "constant": false,
      "inputs": [
        {
          "name": "name",
          "type": "string"
        },
        {
          "name": "country",
          "type": "string"
        },
        {
          "name": "state",
          "type": "string"
        },
        {
          "name": "city",
          "type": "string"
        },
        {
          "name": "location",
          "type": "string"
        },
        {
          "name": "zip",
          "type": "string"
        },
        {
          "name": "priceWei",
          "type": "uint256"
        },
        {
          "name": "confirmationCodeSha3",
          "type": "bytes32"
        },
        {
          "name": "sigV",
          "type": "uint8"
        },
        {
          "name": "sigR",
          "type": "bytes32"
        },
        {
          "name": "sigS",
          "type": "bytes32"
        }
      ],
      "name": "registerAddress",
      "outputs": [],
      "payable": true,
      "stateMutability": "payable",
      "type": "function"
    },
    {
      "constant": false,
      "inputs": [
        {
          "name": "country",
          "type": "string"
        },
        {
          "name": "state",
          "type": "string"
        },
        {
          "name": "city",
          "type": "string"
        },
        {
          "name": "location",
          "type": "string"
        },
        {
          "name": "zip",
          "type": "string"
        }
      ],
      "name": "unregisterAddress",
      "outputs": [],
      "payable": false,
      "stateMutability": "nonpayable",
      "type": "function"
    },
    {
      "constant": false,
      "inputs": [
        {
          "name": "confirmationCodePlain",
          "type": "string"
        },
        {
          "name": "sigV",
          "type": "uint8"
        },
        {
          "name": "sigR",
          "type": "bytes32"
        },
        {
          "name": "sigS",
          "type": "bytes32"
        }
      ],
      "name": "confirmAddress",
      "outputs": [],
      "payable": false,
      "stateMutability": "nonpayable",
      "type": "function"
    },
    {
      "constant": false,
      "inputs": [
        {
          "name": "_token",
          "type": "address"
        },
        {
          "name": "_to",
          "type": "address"
        }
      ],
      "name": "claimTokens",
      "outputs": [],
      "payable": false,
      "stateMutability": "nonpayable",
      "type": "function"
    }
  ],
  "bytecode": "0x608060405234801561001057600080fd5b5060405160208061497d83398101806040528101908080519060200190929190505050336000806101000a81548173ffffffffffffffffffffffffffffffffffffffff021916908373ffffffffffffffffffffffffffffffffffffffff1602179055506000809054906101000a900473ffffffffffffffffffffffffffffffffffffffff16600160006101000a81548173ffffffffffffffffffffffffffffffffffffffff021916908373ffffffffffffffffffffffffffffffffffffffff16021790555080600260006101000a81548173ffffffffffffffffffffffffffffffffffffffff021916908373ffffffffffffffffffffffffffffffffffffffff16021790555050614857806101266000396000f30060806040526004361061016a576000357c0100000000000000000000000000000000000000000000000000000000900463ffffffff168063058317761461016f5780630e666e49146101e6578063238ac933146102415780632c2a178e146102985780634028a0f11461049357806369ffa08a146104d25780636c19e783146105355780637b10399914610578578063853828b6146105cf57806389bff0b9146105e65780638da5cb5b14610661578063a5db3d02146106b8578063a87430ba1461074a578063a91ee0dc146107a1578063ae9b051c146107e4578063b4778e2d14610811578063b55fbd0414610a87578063bff1f9e114610b43578063c0fe077f14610b82578063c228251b14610c0c578063c94f2c1b14610d8d578063cfad527714610de4578063d673560414610e23578063d956be1014610edf578063de3d702e14610f51578063e585332e14610fa8578063f0486ab414611173578063feea9808146111d8575b600080fd5b34801561017b57600080fd5b506101ba600480360381019080803573ffffffffffffffffffffffffffffffffffffffff169060200190929190803590602001909291905050506112bb565b604051808415151515815260200183815260200182151515158152602001935050505060405180910390f35b3480156101f257600080fd5b50610227600480360381019080803573ffffffffffffffffffffffffffffffffffffffff1690602001909291905050506113cd565b604051808215151515815260200191505060405180910390f35b34801561024d57600080fd5b5061025661141b565b604051808273ffffffffffffffffffffffffffffffffffffffff1673ffffffffffffffffffffffffffffffffffffffff16815260200191505060405180910390f35b610491600480360381019080803590602001908201803590602001908080601f0160208091040260200160405190810160405280939291908181526020018383808284378201915050505050509192919290803590602001908201803590602001908080601f0160208091040260200160405190810160405280939291908181526020018383808284378201915050505050509192919290803590602001908201803590602001908080601f0160208091040260200160405190810160405280939291908181526020018383808284378201915050505050509192919290803590602001908201803590602001908080601f0160208091040260200160405190810160405280939291908181526020018383808284378201915050505050509192919290803590602001908201803590602001908080601f0160208091040260200160405190810160405280939291908181526020018383808284378201915050505050509192919290803590602001908201803590602001908080601f0160208091040260200160405190810160405280939291908181526020018383808284378201915050505050509192919290803590602001909291908035600019169060200190929190803560ff16906020019092919080356000191690602001909291908035600019169060200190929190505050611441565b005b34801561049f57600080fd5b506104a8611c84565b604051808267ffffffffffffffff1667ffffffffffffffff16815260200191505060405180910390f35b3480156104de57600080fd5b50610533600480360381019080803573ffffffffffffffffffffffffffffffffffffffff169060200190929190803573ffffffffffffffffffffffffffffffffffffffff169060200190929190505050611c9e565b005b34801561054157600080fd5b50610576600480360381019080803573ffffffffffffffffffffffffffffffffffffffff169060200190929190505050611fd3565b005b34801561058457600080fd5b5061058d6120d5565b604051808273ffffffffffffffffffffffffffffffffffffffff1673ffffffffffffffffffffffffffffffffffffffff16815260200191505060405180910390f35b3480156105db57600080fd5b506105e46120fb565b005b3480156105f257600080fd5b50610635600480360381019080803573ffffffffffffffffffffffffffffffffffffffff16906020019092919080356000191690602001909291905050506121fd565b604051808415151515815260200183815260200182151515158152602001935050505060405180910390f35b34801561066d57600080fd5b50610676612317565b604051808273ffffffffffffffffffffffffffffffffffffffff1673ffffffffffffffffffffffffffffffffffffffff16815260200191505060405180910390f35b3480156106c457600080fd5b50610748600480360381019080803590602001908201803590602001908080601f0160208091040260200160405190810160405280939291908181526020018383808284378201915050505050509192919290803560ff1690602001909291908035600019169060200190929190803560001916906020019092919050505061233c565b005b34801561075657600080fd5b5061078b600480360381019080803573ffffffffffffffffffffffffffffffffffffffff1690602001909291905050506126fc565b6040518082815260200191505060405180910390f35b3480156107ad57600080fd5b506107e2600480360381019080803573ffffffffffffffffffffffffffffffffffffffff16906020019092919050505061271a565b005b3480156107f057600080fd5b5061080f6004803603810190808035906020019092919050505061281c565b005b34801561081d57600080fd5b5061085c600480360381019080803573ffffffffffffffffffffffffffffffffffffffff16906020019092919080359060200190929190505050612908565b60405180806020018060200180602001806020018060200186810386528b818151815260200191508051906020019080838360005b838110156108ac578082015181840152602081019050610891565b50505050905090810190601f1680156108d95780820380516001836020036101000a031916815260200191505b5086810385528a818151815260200191508051906020019080838360005b838110156109125780820151818401526020810190506108f7565b50505050905090810190601f16801561093f5780820380516001836020036101000a031916815260200191505b50868103845289818151815260200191508051906020019080838360005b8381101561097857808201518184015260208101905061095d565b50505050905090810190601f1680156109a55780820380516001836020036101000a031916815260200191505b50868103835288818151815260200191508051906020019080838360005b838110156109de5780820151818401526020810190506109c3565b50505050905090810190601f168015610a0b5780820380516001836020036101000a031916815260200191505b50868103825287818151815260200191508051906020019080838360005b83811015610a44578082015181840152602081019050610a29565b50505050905090810190601f168015610a715780820380516001836020036101000a031916815260200191505b509a505050505050505050505060405180910390f35b348015610a9357600080fd5b50610ac8600480360381019080803573ffffffffffffffffffffffffffffffffffffffff169060200190929190505050612e7d565b6040518080602001828103825283818151815260200191508051906020019080838360005b83811015610b08578082015181840152602081019050610aed565b50505050905090810190601f168015610b355780820380516001836020036101000a031916815260200191505b509250505060405180910390f35b348015610b4f57600080fd5b50610b58613020565b604051808267ffffffffffffffff1667ffffffffffffffff16815260200191505060405180910390f35b348015610b8e57600080fd5b50610bd1600480360381019080803573ffffffffffffffffffffffffffffffffffffffff169060200190929190803560001916906020019092919050505061303a565b604051808515151515815260200184815260200183151515158152602001826000191660001916815260200194505050505060405180910390f35b348015610c1857600080fd5b50610d8b600480360381019080803590602001908201803590602001908080601f0160208091040260200160405190810160405280939291908181526020018383808284378201915050505050509192919290803590602001908201803590602001908080601f0160208091040260200160405190810160405280939291908181526020018383808284378201915050505050509192919290803590602001908201803590602001908080601f0160208091040260200160405190810160405280939291908181526020018383808284378201915050505050509192919290803590602001908201803590602001908080601f0160208091040260200160405190810160405280939291908181526020018383808284378201915050505050509192919290803590602001908201803590602001908080601f01602080910402602001604051908101604052809392919081815260200183838082843782019150505050505091929192905050506131c4565b005b348015610d9957600080fd5b50610dce600480360381019080803573ffffffffffffffffffffffffffffffffffffffff1690602001909291905050506137f3565b6040518082815260200191505060405180910390f35b348015610df057600080fd5b50610df961387a565b604051808267ffffffffffffffff1667ffffffffffffffff16815260200191505060405180910390f35b348015610e2f57600080fd5b50610e64600480360381019080803573ffffffffffffffffffffffffffffffffffffffff169060200190929190505050613894565b6040518080602001828103825283818151815260200191508051906020019080838360005b83811015610ea4578082015181840152602081019050610e89565b50505050905090810190601f168015610ed15780820380516001836020036101000a031916815260200191505b509250505060405180910390f35b348015610eeb57600080fd5b50610f376004803603810190808035600019169060200190929190803560ff16906020019092919080356000191690602001909291908035600019169060200190929190505050613a5b565b604051808215151515815260200191505060405180910390f35b348015610f5d57600080fd5b50610f92600480360381019080803573ffffffffffffffffffffffffffffffffffffffff169060200190929190505050613beb565b6040518082815260200191505060405180910390f35b348015610fb457600080fd5b50611147600480360381019080803573ffffffffffffffffffffffffffffffffffffffff169060200190929190803590602001908201803590602001908080601f0160208091040260200160405190810160405280939291908181526020018383808284378201915050505050509192919290803590602001908201803590602001908080601f0160208091040260200160405190810160405280939291908181526020018383808284378201915050505050509192919290803590602001908201803590602001908080601f0160208091040260200160405190810160405280939291908181526020018383808284378201915050505050509192919290803590602001908201803590602001908080601f0160208091040260200160405190810160405280939291908181526020018383808284378201915050505050509192919290803590602001908201803590602001908080601f0160208091040260200160405190810160405280939291908181526020018383808284378201915050505050509192919290505050613c3a565b604051808415151515815260200183815260200182151515158152602001935050505060405180910390f35b34801561117f57600080fd5b506111be600480360381019080803573ffffffffffffffffffffffffffffffffffffffff16906020019092919080359060200190929190505050613e2c565b604051808215151515815260200191505060405180910390f35b3480156111e457600080fd5b50611223600480360381019080803573ffffffffffffffffffffffffffffffffffffffff16906020019092919080359060200190929190505050614128565b60405180806020018581526020018481526020018360001916600019168152602001828103825286818151815260200191508051906020019080838360005b8381101561127d578082015181840152602081019050611262565b50505050905090810190601f1680156112aa5780820380516001836020036101000a031916815260200191505b509550505050505060405180910390f35b600080600080856112cb816113cd565b15156112d657600080fd5b600091505b600360008873ffffffffffffffffffffffffffffffffffffffff1673ffffffffffffffffffffffffffffffffffffffff168152602001908152602001600020600101805490508210156113b55785600360008973ffffffffffffffffffffffffffffffffffffffff1673ffffffffffffffffffffffffffffffffffffffff1681526020019081526020016000206001018381548110151561137857fe5b90600052602060002090600902016006015414156113a85760018261139d8985613e2c565b9450945094506113c4565b81806001019250506112db565b60008060008191509450945094505b50509250925092565b600080600360008473ffffffffffffffffffffffffffffffffffffffff1673ffffffffffffffffffffffffffffffffffffffff16815260200190815260200160002060000154119050919050565b600160009054906101000a900473ffffffffffffffffffffffffffffffffffffffff1681565b60008061144c614577565b60008e5111151561145c57600080fd5b60008d5111151561146c57600080fd5b60008c5111151561147c57600080fd5b60008b5111151561148c57600080fd5b60008a5111151561149c57600080fd5b600089511115156114ac57600080fd5b8734101515156114bb57600080fd5b7fffffffffffffffffffffffffffffffffffffffffffffffffffffffffffffffff600360003373ffffffffffffffffffffffffffffffffffffffff1673ffffffffffffffffffffffffffffffffffffffff1681526020019081526020016000206001018054905010151561152e57600080fd5b338e8e8e8e8e8e8e8e604051808a73ffffffffffffffffffffffffffffffffffffffff1673ffffffffffffffffffffffffffffffffffffffff166c0100000000000000000000000002815260140189805190602001908083835b6020831015156115ad5780518252602082019150602081019050602083039250611588565b6001836020036101000a03801982511681845116808217855250505050505090500188805190602001908083835b60208310151561160057805182526020820191506020810190506020830392506115db565b6001836020036101000a03801982511681845116808217855250505050505090500187805190602001908083835b602083101515611653578051825260208201915060208101905060208303925061162e565b6001836020036101000a03801982511681845116808217855250505050505090500186805190602001908083835b6020831015156116a65780518252602082019150602081019050602083039250611681565b6001836020036101000a03801982511681845116808217855250505050505090500185805190602001908083835b6020831015156116f957805182526020820191506020810190506020830392506116d4565b6001836020036101000a03801982511681845116808217855250505050505090500184805190602001908083835b60208310151561174c5780518252602082019150602081019050602083039250611727565b6001836020036101000a03801982511681845116808217855250505050505090500183815260200182600019166000191681526020019950505050505050505050604051809103902092506117a383878787613a5b565b15156117ae57600080fd5b6117b7336113cd565b156117e3576117ca338e8e8e8e8e613c3a565b90505080925050811515156117de57600080fd5b61186e565b43600360003373ffffffffffffffffffffffffffffffffffffffff1673ffffffffffffffffffffffffffffffffffffffff168152602001908152602001600020600001819055506001600460008282829054906101000a900467ffffffffffffffff160192506101000a81548167ffffffffffffffff021916908367ffffffffffffffff1602179055505b8d81600001819052508c81602001819052508b81604001819052508a8160600181905250898160800181905250888160a00181905250438160c00181815250508681610100019060001916908160001916815250508c8c8c8c8c6040518086805190602001908083835b6020831015156118fd57805182526020820191506020810190506020830392506118d8565b6001836020036101000a03801982511681845116808217855250505050505090500185805190602001908083835b602083101515611950578051825260208201915060208101905060208303925061192b565b6001836020036101000a03801982511681845116808217855250505050505090500184805190602001908083835b6020831015156119a3578051825260208201915060208101905060208303925061197e565b6001836020036101000a03801982511681845116808217855250505050505090500183805190602001908083835b6020831015156119f657805182526020820191506020810190506020830392506119d1565b6001836020036101000a03801982511681845116808217855250505050505090500182805190602001908083835b602083101515611a495780518252602082019150602081019050602083039250611a24565b6001836020036101000a0380198251168184511680821785525050505050509050019550505050505060405180910390208160e001906000191690816000191681525050600360003373ffffffffffffffffffffffffffffffffffffffff1673ffffffffffffffffffffffffffffffffffffffff16815260200190815260200160002060010181908060018154018082558091505090600182039060005260206000209060090201600090919290919091506000820151816000019080519060200190611b179291906145ca565b506020820151816001019080519060200190611b349291906145ca565b506040820151816002019080519060200190611b519291906145ca565b506060820151816003019080519060200190611b6e9291906145ca565b506080820151816004019080519060200190611b8b9291906145ca565b5060a0820151816005019080519060200190611ba89291906145ca565b5060c0820151816006015560e0820151816007019060001916905561010082015181600801906000191690555050506001600460088282829054906101000a900467ffffffffffffffff160192506101000a81548167ffffffffffffffff021916908367ffffffffffffffff1602179055503373ffffffffffffffffffffffffffffffffffffffff167fe7c91dadc713049bfb35a5b137524bc4546369091366d48bb185433127b9f26b8260e0015160405180826000191660001916815260200191505060405180910390a25050505050505050505050505050565b600460109054906101000a900467ffffffffffffffff1681565b6000806000809054906101000a900473ffffffffffffffffffffffffffffffffffffffff1673ffffffffffffffffffffffffffffffffffffffff163373ffffffffffffffffffffffffffffffffffffffff16141515611cfc57600080fd5b600073ffffffffffffffffffffffffffffffffffffffff168473ffffffffffffffffffffffffffffffffffffffff1614151515611d3857600080fd5b600073ffffffffffffffffffffffffffffffffffffffff168373ffffffffffffffffffffffffffffffffffffffff1614151515611d7457600080fd5b8391508173ffffffffffffffffffffffffffffffffffffffff166370a08231306040518263ffffffff167c0100000000000000000000000000000000000000000000000000000000028152600401808273ffffffffffffffffffffffffffffffffffffffff1673ffffffffffffffffffffffffffffffffffffffff168152602001915050602060405180830381600087803b158015611e1257600080fd5b505af1158015611e26573d6000803e3d6000fd5b505050506040513d6020811015611e3c57600080fd5b810190808051906020019092919050505090508173ffffffffffffffffffffffffffffffffffffffff1663a9059cbb84836040518363ffffffff167c0100000000000000000000000000000000000000000000000000000000028152600401808373ffffffffffffffffffffffffffffffffffffffff1673ffffffffffffffffffffffffffffffffffffffff16815260200182815260200192505050602060405180830381600087803b158015611ef257600080fd5b505af1158015611f06573d6000803e3d6000fd5b505050506040513d6020811015611f1c57600080fd5b8101908080519060200190929190505050507fbade9c303f5a400b6706b3cbea82197948f018cd82138ea9bafcada571831967848483604051808473ffffffffffffffffffffffffffffffffffffffff1673ffffffffffffffffffffffffffffffffffffffff1681526020018373ffffffffffffffffffffffffffffffffffffffff1673ffffffffffffffffffffffffffffffffffffffff168152602001828152602001935050505060405180910390a150505050565b6000809054906101000a900473ffffffffffffffffffffffffffffffffffffffff1673ffffffffffffffffffffffffffffffffffffffff163373ffffffffffffffffffffffffffffffffffffffff1614151561202e57600080fd5b80600160006101000a81548173ffffffffffffffffffffffffffffffffffffffff021916908373ffffffffffffffffffffffffffffffffffffffff1602179055507fee87a28570c895f7da676d522308fff544b84e34ac47fcb36b53f5ef848e5e3281604051808273ffffffffffffffffffffffffffffffffffffffff1673ffffffffffffffffffffffffffffffffffffffff16815260200191505060405180910390a150565b600260009054906101000a900473ffffffffffffffffffffffffffffffffffffffff1681565b6000809054906101000a900473ffffffffffffffffffffffffffffffffffffffff1673ffffffffffffffffffffffffffffffffffffffff163373ffffffffffffffffffffffffffffffffffffffff1614151561215657600080fd5b60003073ffffffffffffffffffffffffffffffffffffffff163111151561217c57600080fd5b6000809054906101000a900473ffffffffffffffffffffffffffffffffffffffff1673ffffffffffffffffffffffffffffffffffffffff166108fc3073ffffffffffffffffffffffffffffffffffffffff16319081150290604051600060405180830381858888f193505050501580156121fa573d6000803e3d6000fd5b50565b6000806000808561220d816113cd565b151561221857600080fd5b600091505b600360008873ffffffffffffffffffffffffffffffffffffffff1673ffffffffffffffffffffffffffffffffffffffff168152602001908152602001600020600101805490508210156122ff578560001916600360008973ffffffffffffffffffffffffffffffffffffffff1673ffffffffffffffffffffffffffffffffffffffff168152602001908152602001600020600101838154811015156122be57fe5b9060005260206000209060090201600701546000191614156122f2576001826122e78985613e2c565b94509450945061230e565b818060010192505061221d565b60008060008191509450945094505b50509250925092565b6000809054906101000a900473ffffffffffffffffffffffffffffffffffffffff1681565b60008060008060003361234e816113cd565b151561235957600080fd5b60008a5111151561236957600080fd5b338a604051808373ffffffffffffffffffffffffffffffffffffffff1673ffffffffffffffffffffffffffffffffffffffff166c0100000000000000000000000002815260140182805190602001908083835b6020831015156123e157805182526020820191506020810190506020830392506123bc565b6001836020036101000a038019825116818451168082178552505050505050905001925050506040518091039020955061241d868a8a8a613a5b565b151561242857600080fd5b612494338b6040518082805190602001908083835b602083101515612462578051825260208201915060208101905060208303925061243d565b6001836020036101000a038019825116818451168082178552505050505050905001915050604051809103902061303a565b809550819650829750839850505050508415156124b057600080fd5b821515156124bd57600080fd5b600260009054906101000a900473ffffffffffffffffffffffffffffffffffffffff1673ffffffffffffffffffffffffffffffffffffffff16639918925d338473__PhysicalAddressClaim__________________63deb21fa2436040518263ffffffff167c01000000000000000000000000000000000000000000000000000000000281526004018082815260200191505060206040518083038186803b15801561256857600080fd5b505af415801561257c573d6000803e3d6000fd5b505050506040513d602081101561259257600080fd5b81019080805190602001909291905050506040518463ffffffff167c0100000000000000000000000000000000000000000000000000000000028152600401808473ffffffffffffffffffffffffffffffffffffffff1673ffffffffffffffffffffffffffffffffffffffff168152602001836000191660001916815260200182600019166000191681526020019350505050600060405180830381600087803b15801561263f57600080fd5b505af1158015612653573d6000803e3d6000fd5b505050506001600460108282829054906101000a900467ffffffffffffffff160192506101000a81548167ffffffffffffffff021916908367ffffffffffffffff1602179055503373ffffffffffffffffffffffffffffffffffffffff167fcb5c5ab258abc7b8cafdc09ca97a09fa4d98a46a9a83f0462061e78fcb198cb98360405180826000191660001916815260200191505060405180910390a250505050505050505050565b60036020528060005260406000206000915090508060000154905081565b6000809054906101000a900473ffffffffffffffffffffffffffffffffffffffff1673ffffffffffffffffffffffffffffffffffffffff163373ffffffffffffffffffffffffffffffffffffffff1614151561277557600080fd5b80600260006101000a81548173ffffffffffffffffffffffffffffffffffffffff021916908373ffffffffffffffffffffffffffffffffffffffff1602179055507fffd9ec64cd3990d58d48617f2750d82ea8ea105c84989b7f77c5242178ba4aeb81604051808273ffffffffffffffffffffffffffffffffffffffff1673ffffffffffffffffffffffffffffffffffffffff16815260200191505060405180910390a150565b6000809054906101000a900473ffffffffffffffffffffffffffffffffffffffff1673ffffffffffffffffffffffffffffffffffffffff163373ffffffffffffffffffffffffffffffffffffffff1614151561287757600080fd5b803073ffffffffffffffffffffffffffffffffffffffff16311015151561289d57600080fd5b6000809054906101000a900473ffffffffffffffffffffffffffffffffffffffff1673ffffffffffffffffffffffffffffffffffffffff166108fc829081150290604051600060405180830381858888f19350505050158015612904573d6000803e3d6000fd5b5050565b60608060608060608661291a816113cd565b151561292557600080fd5b8787600360008373ffffffffffffffffffffffffffffffffffffffff1673ffffffffffffffffffffffffffffffffffffffff168152602001908152602001600020600101805490508110151561297a57600080fd5b600360008b73ffffffffffffffffffffffffffffffffffffffff1673ffffffffffffffffffffffffffffffffffffffff168152602001908152602001600020600101898154811015156129c957fe5b9060005260206000209060090201600101600360008c73ffffffffffffffffffffffffffffffffffffffff1673ffffffffffffffffffffffffffffffffffffffff1681526020019081526020016000206001018a815481101515612a2957fe5b9060005260206000209060090201600201600360008d73ffffffffffffffffffffffffffffffffffffffff1673ffffffffffffffffffffffffffffffffffffffff1681526020019081526020016000206001018b815481101515612a8957fe5b9060005260206000209060090201600301600360008e73ffffffffffffffffffffffffffffffffffffffff1673ffffffffffffffffffffffffffffffffffffffff1681526020019081526020016000206001018c815481101515612ae957fe5b9060005260206000209060090201600401600360008f73ffffffffffffffffffffffffffffffffffffffff1673ffffffffffffffffffffffffffffffffffffffff1681526020019081526020016000206001018d815481101515612b4957fe5b9060005260206000209060090201600501848054600181600116156101000203166002900480601f016020809104026020016040519081016040528092919081815260200182805460018160011615610100020316600290048015612bef5780601f10612bc457610100808354040283529160200191612bef565b820191906000526020600020905b815481529060010190602001808311612bd257829003601f168201915b50505050509450838054600181600116156101000203166002900480601f016020809104026020016040519081016040528092919081815260200182805460018160011615610100020316600290048015612c8b5780601f10612c6057610100808354040283529160200191612c8b565b820191906000526020600020905b815481529060010190602001808311612c6e57829003601f168201915b50505050509350828054600181600116156101000203166002900480601f016020809104026020016040519081016040528092919081815260200182805460018160011615610100020316600290048015612d275780601f10612cfc57610100808354040283529160200191612d27565b820191906000526020600020905b815481529060010190602001808311612d0a57829003601f168201915b50505050509250818054600181600116156101000203166002900480601f016020809104026020016040519081016040528092919081815260200182805460018160011615610100020316600290048015612dc35780601f10612d9857610100808354040283529160200191612dc3565b820191906000526020600020905b815481529060010190602001808311612da657829003601f168201915b50505050509150808054600181600116156101000203166002900480601f016020809104026020016040519081016040528092919081815260200182805460018160011615610100020316600290048015612e5f5780601f10612e3457610100808354040283529160200191612e5f565b820191906000526020600020905b815481529060010190602001808311612e4257829003601f168201915b50505050509050975097509750975097505050509295509295909350565b6060600082612e8b816113cd565b1515612e9657600080fd5b600360008573ffffffffffffffffffffffffffffffffffffffff1673ffffffffffffffffffffffffffffffffffffffff1681526020019081526020016000206001018054905091505b600082111561300557818060019003925050612efb8483613e2c565b1561300057600360008573ffffffffffffffffffffffffffffffffffffffff1673ffffffffffffffffffffffffffffffffffffffff16815260200190815260200160002060010182815481101515612f4f57fe5b90600052602060002090600902016000018054600181600116156101000203166002900480601f016020809104026020016040519081016040528092919081815260200182805460018160011615610100020316600290048015612ff45780601f10612fc957610100808354040283529160200191612ff4565b820191906000526020600020905b815481529060010190602001808311612fd757829003601f168201915b50505050509250613019565b612edf565b602060405190810160405280600081525092505b5050919050565b600460009054906101000a900467ffffffffffffffff1681565b60008060008060008661304c816113cd565b151561305757600080fd5b600091505b600360008973ffffffffffffffffffffffffffffffffffffffff1673ffffffffffffffffffffffffffffffffffffffff168152602001908152602001600020600101805490508210156131a1578660001916600360008a73ffffffffffffffffffffffffffffffffffffffff1673ffffffffffffffffffffffffffffffffffffffff168152602001908152602001600020600101838154811015156130fd57fe5b906000526020600020906009020160080154600019161415613194576001826131268a85613e2c565b600360008c73ffffffffffffffffffffffffffffffffffffffff1673ffffffffffffffffffffffffffffffffffffffff1681526020019081526020016000206001018581548110151561317557fe5b90600052602060002090600902016007015495509550955095506131b9565b818060010192505061305c565b60008060008082925080600102905095509550955095505b505092959194509250565b6000806000806000336131d6816113cd565b15156131e157600080fd5b6131ef338c8c8c8c8c613c3a565b80965081975082985050505085151561320757600080fd5b600360003373ffffffffffffffffffffffffffffffffffffffff1673ffffffffffffffffffffffffffffffffffffffff1681526020019081526020016000206001018581548110151561325657fe5b9060005260206000209060090201600701549250600260009054906101000a900473ffffffffffffffffffffffffffffffffffffffff1673ffffffffffffffffffffffffffffffffffffffff1663c7508ec73033866040518463ffffffff167c0100000000000000000000000000000000000000000000000000000000028152600401808473ffffffffffffffffffffffffffffffffffffffff1673ffffffffffffffffffffffffffffffffffffffff1681526020018373ffffffffffffffffffffffffffffffffffffffff1673ffffffffffffffffffffffffffffffffffffffff16815260200182600019166000191681526020019350505050600060405180830381600087803b15801561336b57600080fd5b505af115801561337f573d6000803e3d6000fd5b50505050600360003373ffffffffffffffffffffffffffffffffffffffff1673ffffffffffffffffffffffffffffffffffffffff16815260200190815260200160002060010180549050915060018203851415156135b257600360003373ffffffffffffffffffffffffffffffffffffffff1673ffffffffffffffffffffffffffffffffffffffff1681526020019081526020016000206001016001830381548110151561342957fe5b9060005260206000209060090201600360003373ffffffffffffffffffffffffffffffffffffffff1673ffffffffffffffffffffffffffffffffffffffff1681526020019081526020016000206001018681548110151561348657fe5b9060005260206000209060090201600082018160000190805460018160011615610100020316600290046134bb92919061464a565b50600182018160010190805460018160011615610100020316600290046134e392919061464a565b506002820181600201908054600181600116156101000203166002900461350b92919061464a565b506003820181600301908054600181600116156101000203166002900461353392919061464a565b506004820181600401908054600181600116156101000203166002900461355b92919061464a565b506005820181600501908054600181600116156101000203166002900461358392919061464a565b506006820154816006015560078201548160070190600019169055600882015481600801906000191690559050505b600360003373ffffffffffffffffffffffffffffffffffffffff1673ffffffffffffffffffffffffffffffffffffffff16815260200190815260200160002060010180548091906001900361360791906146d1565b506000600360003373ffffffffffffffffffffffffffffffffffffffff1673ffffffffffffffffffffffffffffffffffffffff1681526020019081526020016000206001018054905014156136f957600360003373ffffffffffffffffffffffffffffffffffffffff1673ffffffffffffffffffffffffffffffffffffffff1681526020019081526020016000206000808201600090556001820160006136ae9190614703565b50506004600081819054906101000a900467ffffffffffffffff16809291906001900391906101000a81548167ffffffffffffffff021916908367ffffffffffffffff160217905550505b6004600881819054906101000a900467ffffffffffffffff16809291906001900391906101000a81548167ffffffffffffffff021916908367ffffffffffffffff160217905550508315613790576004601081819054906101000a900467ffffffffffffffff16809291906001900391906101000a81548167ffffffffffffffff021916908367ffffffffffffffff160217905550505b3373ffffffffffffffffffffffffffffffffffffffff167ff205ce75791437944181c7d5b0da9fc3f03171ae90ec93e4dc4f3ddf2982eb018460405180826000191660001916815260200191505060405180910390a25050505050505050505050565b6000806000809150600090505b600360008573ffffffffffffffffffffffffffffffffffffffff1673ffffffffffffffffffffffffffffffffffffffff16815260200190815260200160002060010180549050811015613870576138578482613e2c565b15613863576001820191505b8080600101915050613800565b8192505050919050565b600460089054906101000a900467ffffffffffffffff1681565b6060816138a0816113cd565b15156138ab57600080fd5b6000600360008573ffffffffffffffffffffffffffffffffffffffff1673ffffffffffffffffffffffffffffffffffffffff168152602001908152602001600020600101805490501115613a4157600360008473ffffffffffffffffffffffffffffffffffffffff1673ffffffffffffffffffffffffffffffffffffffff1681526020019081526020016000206001016001600360008673ffffffffffffffffffffffffffffffffffffffff1673ffffffffffffffffffffffffffffffffffffffff168152602001908152602001600020600101805490500381548110151561399057fe5b90600052602060002090600902016000018054600181600116156101000203166002900480601f016020809104026020016040519081016040528092919081815260200182805460018160011615610100020316600290048015613a355780601f10613a0a57610100808354040283529160200191613a35565b820191906000526020600020905b815481529060010190602001808311613a1857829003601f168201915b50505050509150613a55565b602060405190810160405280600081525091505b50919050565b6000606060006040805190810160405280601c81526020017f19457468657265756d205369676e6564204d6573736167653a0a333200000000815250915081876040518083805190602001908083835b602083101515613ad05780518252602082019150602081019050602083039250613aab565b6001836020036101000a03801982511681845116808217855250505050505090500182600019166000191681526020019250505060405180910390209050600160009054906101000a900473ffffffffffffffffffffffffffffffffffffffff1673ffffffffffffffffffffffffffffffffffffffff16600182888888604051600081526020016040526040518085600019166000191681526020018460ff1660ff1681526020018360001916600019168152602001826000191660001916815260200194505050505060206040516020810390808403906000865af1158015613bbe573d6000803e3d6000fd5b5050506020604051035173ffffffffffffffffffffffffffffffffffffffff161492505050949350505050565b6000600360008373ffffffffffffffffffffffffffffffffffffffff1673ffffffffffffffffffffffffffffffffffffffff168152602001908152602001600020600101805490509050919050565b60008060008089613c4a816113cd565b1515613c5557600080fd5b89898989896040518086805190602001908083835b602083101515613c8f5780518252602082019150602081019050602083039250613c6a565b6001836020036101000a03801982511681845116808217855250505050505090500185805190602001908083835b602083101515613ce25780518252602082019150602081019050602083039250613cbd565b6001836020036101000a03801982511681845116808217855250505050505090500184805190602001908083835b602083101515613d355780518252602082019150602081019050602083039250613d10565b6001836020036101000a03801982511681845116808217855250505050505090500183805190602001908083835b602083101515613d885780518252602082019150602081019050602083039250613d63565b6001836020036101000a03801982511681845116808217855250505050505090500182805190602001908083835b602083101515613ddb5780518252602082019150602081019050602083039250613db6565b6001836020036101000a0380198251168184511680821785525050505050509050019550505050505060405180910390209150613e188b836121fd565b945094509450505096509650969350505050565b600080600084613e3b816113cd565b1515613e4657600080fd5b8585600360008373ffffffffffffffffffffffffffffffffffffffff1673ffffffffffffffffffffffffffffffffffffffff1681526020019081526020016000206001018054905081101515613e9b57600080fd5b600360008973ffffffffffffffffffffffffffffffffffffffff1673ffffffffffffffffffffffffffffffffffffffff16815260200190815260200160002060010187815481101515613eea57fe5b90600052602060002090600902016007015494506000600102856000191614151515613f1257fe5b600260009054906101000a900473ffffffffffffffffffffffffffffffffffffffff1673ffffffffffffffffffffffffffffffffffffffff1663e1661eff308a886040518463ffffffff167c0100000000000000000000000000000000000000000000000000000000028152600401808473ffffffffffffffffffffffffffffffffffffffff1673ffffffffffffffffffffffffffffffffffffffff1681526020018373ffffffffffffffffffffffffffffffffffffffff1673ffffffffffffffffffffffffffffffffffffffff16815260200182600019166000191681526020019350505050602060405180830381600087803b15801561401357600080fd5b505af1158015614027573d6000803e3d6000fd5b505050506040513d602081101561403d57600080fd5b81019080805190602001909291905050509350600060010284600019161415614069576000955061411d565b600073__PhysicalAddressClaim__________________637194df0d866040518263ffffffff167c010000000000000000000000000000000000000000000000000000000002815260040180826000191660001916815260200191505060206040518083038186803b1580156140de57600080fd5b505af41580156140f2573d6000803e3d6000fd5b505050506040513d602081101561410857600080fd5b81019080805190602001909291905050501195505b505050505092915050565b606060008060008060008761413c816113cd565b151561414757600080fd5b8888600360008373ffffffffffffffffffffffffffffffffffffffff1673ffffffffffffffffffffffffffffffffffffffff168152602001908152602001600020600101805490508110151561419c57600080fd5b600360008c73ffffffffffffffffffffffffffffffffffffffff1673ffffffffffffffffffffffffffffffffffffffff1681526020019081526020016000206001018a8154811015156141eb57fe5b9060005260206000209060090201600701549450600260009054906101000a900473ffffffffffffffffffffffffffffffffffffffff1673ffffffffffffffffffffffffffffffffffffffff1663e1661eff308d886040518463ffffffff167c0100000000000000000000000000000000000000000000000000000000028152600401808473ffffffffffffffffffffffffffffffffffffffff1673ffffffffffffffffffffffffffffffffffffffff1681526020018373ffffffffffffffffffffffffffffffffffffffff1673ffffffffffffffffffffffffffffffffffffffff16815260200182600019166000191681526020019350505050602060405180830381600087803b15801561430057600080fd5b505af1158015614314573d6000803e3d6000fd5b505050506040513d602081101561432a57600080fd5b81019080805190602001909291905050509350600360008c73ffffffffffffffffffffffffffffffffffffffff1673ffffffffffffffffffffffffffffffffffffffff1681526020019081526020016000206001018a81548110151561438c57fe5b9060005260206000209060090201600001600360008d73ffffffffffffffffffffffffffffffffffffffff1673ffffffffffffffffffffffffffffffffffffffff1681526020019081526020016000206001018b8154811015156143ec57fe5b9060005260206000209060090201600601546000600102866000191614156144155760006144c4565b73__PhysicalAddressClaim__________________637194df0d876040518263ffffffff167c010000000000000000000000000000000000000000000000000000000002815260040180826000191660001916815260200191505060206040518083038186803b15801561448857600080fd5b505af415801561449c573d6000803e3d6000fd5b505050506040513d60208110156144b257600080fd5b81019080805190602001909291905050505b87838054600181600116156101000203166002900480601f01602080910402602001604051908101604052809291908181526020018280546001816001161561010002031660029004801561455a5780601f1061452f5761010080835404028352916020019161455a565b820191906000526020600020905b81548152906001019060200180831161453d57829003601f168201915b505050505093509850985098509850505050505092959194509250565b610120604051908101604052806060815260200160608152602001606081526020016060815260200160608152602001606081526020016000815260200160008019168152602001600080191681525090565b828054600181600116156101000203166002900490600052602060002090601f016020900481019282601f1061460b57805160ff1916838001178555614639565b82800160010185558215614639579182015b8281111561463857825182559160200191906001019061461d565b5b5090506146469190614727565b5090565b828054600181600116156101000203166002900490600052602060002090601f016020900481019282601f1061468357805485556146c0565b828001600101855582156146c057600052602060002091601f016020900482015b828111156146bf5782548255916001019190600101906146a4565b5b5090506146cd9190614727565b5090565b8154818355818111156146fe576009028160090283600052602060002091820191016146fd919061474c565b5b505050565b5080546000825560090290600052602060002090810190614724919061474c565b50565b61474991905b8082111561474557600081600090555060010161472d565b5090565b90565b6147e091905b808211156147dc576000808201600061476b91906147e3565b60018201600061477b91906147e3565b60028201600061478b91906147e3565b60038201600061479b91906147e3565b6004820160006147ab91906147e3565b6005820160006147bb91906147e3565b60068201600090556007820160009055600882016000905550600901614752565b5090565b90565b50805460018160011615610100020316600290046000825580601f106148095750614828565b601f0160209004906000526020600020908101906148279190614727565b5b505600a165627a7a72305820a5422018fb0ba74b1945086365308d0a7be0ec2a0880e73c45fdbb0cad19adce0029",
  "source": "pragma solidity 0.4.24;\n\nimport \"./EthereumClaimsRegistryInterface.sol\";\nimport \"./PhysicalAddressClaim.sol\";\nimport \"./ERC20.sol\";\n\n\n// Checks -> Effects -> Interactions\ncontract ProofOfPhysicalAddress {\n    address public owner;\n    address public signer;\n    EthereumClaimsRegistryInterface public registry;\n\n    // Main structures:\n    struct PhysicalAddress {\n        string name;\n\n        string country;\n        string state;\n        string city;\n        string location;\n        string zip;\n\n        uint256 creationBlock;\n        bytes32 keccakIdentifier;\n        bytes32 confirmationCodeSha3;\n    }\n\n    function ProofOfPhysicalAddress(address _registry) public\n    {\n        owner = msg.sender;\n        signer = owner;\n        registry = EthereumClaimsRegistryInterface(_registry);\n    }\n\n    struct User {\n        uint256 creationBlock;\n        PhysicalAddress[] physicalAddresses;\n    }\n\n    mapping (address => User) public users;\n\n    // Stats:\n\n    uint64 public totalUsers;\n    uint64 public totalAddresses;\n    uint64 public totalConfirmed;\n\n    // Events:\n\n    event LogSignerChanged(address newSigner);\n    event LogRegistryChanged(address newRegistry);\n    event LogAddressRegistered(address indexed wallet, bytes32 keccakIdentifier);\n    event LogAddressUnregistered(address indexed wallet, bytes32 keccakIdentifier);\n    event LogAddressConfirmed(address indexed wallet, bytes32 keccakIdentifier);\n    event LogClaimedTokens(address token, address to, uint256 amount);\n\n    // Modifiers:\n    modifier onlyOwner() {\n        require(msg.sender == owner);\n        _;\n    }\n\n    modifier checkUserExists(address wallet) {\n        require(userExists(wallet));\n        _;\n    }\n\n    modifier validIndex(address wallet, uint256 addressIndex) {\n        require(addressIndex < users[wallet].physicalAddresses.length);\n        _;\n    }\n\n    // Helpers:\n    function signerIsValid(bytes32 data, uint8 v, bytes32 r, bytes32 s)\n    public view returns (bool)\n    {\n        bytes memory prefix = \"\\x19Ethereum Signed Message:\\n32\";\n        bytes32 prefixed = keccak256(prefix, data);\n        return (ecrecover(prefixed, v, r, s) == signer);\n    }\n\n    // Methods:\n    // set address that is used on server-side to calculate signatures\n    // and on contract-side to verify them\n    function setSigner(address newSigner) public onlyOwner {\n        signer = newSigner;\n        LogSignerChanged(newSigner);\n    }\n\n    function setRegistry(address newRegistry) public onlyOwner {\n        registry = EthereumClaimsRegistryInterface(newRegistry);\n        LogRegistryChanged(newRegistry);\n    }\n\n    // withdraw specified amount of eth in wei\n    function withdrawSome(uint256 amountWei)\n    public onlyOwner\n    {\n        require(address(this).balance >= amountWei);\n        owner.transfer(amountWei);\n    }\n\n    // withdraw all available eth\n    function withdrawAll()\n    public onlyOwner\n    {\n        require(address(this).balance > 0);\n        owner.transfer(address(this).balance);\n    }\n\n    function userExists(address wallet)\n    public view returns (bool)\n    {\n        return (users[wallet].creationBlock > 0);\n    }\n\n    function userAddressConfirmed(address wallet, uint256 addressIndex)\n    public view checkUserExists(wallet) validIndex(wallet, addressIndex) returns (bool)\n    {\n        bytes32 keccakIdentifier = users[wallet].physicalAddresses[addressIndex].keccakIdentifier;\n\n        assert(keccakIdentifier != 0x0);\n\n        bytes32 claim = registry.getClaim(address(this), wallet, keccakIdentifier);\n\n        if (claim == 0) {\n            return false;\n        }\n\n        return PhysicalAddressClaim.decodeConfirmation(claim) > 0;\n    }\n\n    // returns (found/not found, index if found/0 if not found, confirmed/not confirmed)\n    function userAddressByCreationBlock(address wallet, uint256 creationBlock)\n    public view checkUserExists(wallet) returns (bool, uint256, bool)\n    {\n        for (uint256 ai = 0; ai < users[wallet].physicalAddresses.length; ai++) {\n            if (users[wallet].physicalAddresses[ai].creationBlock == creationBlock) {\n                return (true, ai, userAddressConfirmed(wallet, ai));\n            }\n        }\n        return (false, 0, false);\n    }\n\n    // returns (found/not found, index if found/0 if not found, confirmed/not confirmed)\n    function userAddressByConfirmationCode(\n        address wallet,\n        bytes32 confirmationCodeSha3\n    )\n        public\n        view\n        checkUserExists(wallet)\n        returns(bool, uint256, bool, bytes32)\n    {\n        for (uint256 ai = 0; ai < users[wallet].physicalAddresses.length; ai++) {\n            if (users[wallet].physicalAddresses[ai].confirmationCodeSha3 == confirmationCodeSha3) {\n                return (\n                    true,\n                    ai,\n                    userAddressConfirmed(wallet, ai),\n                    users[wallet].physicalAddresses[ai].keccakIdentifier\n                );\n            }\n        }\n        return (false, 0, false, 0x0);\n    }\n\n    // returns (found/not found, index if found/0 if not found, confirmed/not confirmed)\n    function userAddressByAddress(address wallet, string country, string state, string city, string location, string zip)\n    public view checkUserExists(wallet) returns(bool, uint256, bool)\n    {\n        bytes32 keccakIdentifier = keccak256(country, state, city, location, zip);\n        return userAddressByKeccakIdentifier(wallet, keccakIdentifier);\n    }\n\n    // returns (found/not found, index if found/0 if not found, confirmed/not confirmed)\n    function userAddressByKeccakIdentifier(address wallet, bytes32 keccakIdentifier)\n    public view checkUserExists(wallet) returns(bool, uint256, bool)\n    {\n        for (uint256 ai = 0; ai < users[wallet].physicalAddresses.length; ai++) {\n            if (users[wallet].physicalAddresses[ai].keccakIdentifier == keccakIdentifier) {\n                return (true, ai, userAddressConfirmed(wallet, ai));\n            }\n        }\n        return (false, 0, false);\n    }\n\n    // returns last name submitted to PoPA contract\n    function userLastSubmittedName(address wallet)\n    public view checkUserExists(wallet) returns (string)\n    {\n        if (users[wallet].physicalAddresses.length > 0) {\n            return users[wallet].physicalAddresses[users[wallet].physicalAddresses.length-1].name;\n        }\n\n        return \"\";\n    }\n\n    // returns name from the last confirmed address. If no addresses were confirmed returns ''\n    function userLastConfirmedName(address wallet)\n    public constant checkUserExists(wallet) returns (string)\n    {\n        for (uint256 ai = users[wallet].physicalAddresses.length; ai > 0;) {\n            ai--;\n            if (userAddressConfirmed(wallet, ai)) {\n                return users[wallet].physicalAddresses[ai].name;\n            }\n        }\n        return \"\";\n    }\n\n    // returns how many addresses there are in PoPA contract. If user does not exist, returns 0\n    function userSubmittedAddressesCount(address wallet)\n    public view returns (uint256)\n    {\n        return users[wallet].physicalAddresses.length;\n    }\n\n    // returns how many addresses from PoPA contract are confirmed. If user does not exist, returns 0\n    function userConfirmedAddressesCount(address wallet)\n    public view returns (uint256)\n    {\n        uint256 c = 0;\n        for (uint256 ai = 0; ai < users[wallet].physicalAddresses.length; ai++) {\n            if (userAddressConfirmed(wallet, ai)) {\n                c += 1;\n            }\n        }\n        return c;\n    }\n\n    function userAddress(address wallet, uint256 addressIndex)\n    public view checkUserExists(wallet) validIndex(wallet, addressIndex) returns (\n        string country, string state, string city, string location, string zip)\n    {\n        return (\n            users[wallet].physicalAddresses[addressIndex].country,\n            users[wallet].physicalAddresses[addressIndex].state,\n            users[wallet].physicalAddresses[addressIndex].city,\n            users[wallet].physicalAddresses[addressIndex].location,\n            users[wallet].physicalAddresses[addressIndex].zip\n        );\n    }\n\n    function userAddressInfo(address wallet, uint256 addressIndex)\n    public view checkUserExists(wallet) validIndex(wallet, addressIndex) returns (\n        string name,\n        uint256 creationBlock,\n        uint256 confirmationBlock,\n        bytes32 keccakIdentifier\n    ) {\n        bytes32 _keccakIdentifier = users[wallet].physicalAddresses[addressIndex].keccakIdentifier;\n\n        bytes32 claim = registry.getClaim(\n            address(this),\n            wallet,\n            _keccakIdentifier\n        );\n\n        return (\n            users[wallet].physicalAddresses[addressIndex].name,\n            users[wallet].physicalAddresses[addressIndex].creationBlock,\n            claim != 0 ? PhysicalAddressClaim.decodeConfirmation(claim) : 0,\n            _keccakIdentifier\n        );\n    }\n\n    // Main methods:\n    function registerAddress(\n        string name,\n        string country, string state, string city, string location, string zip,\n        uint256 priceWei,\n        bytes32 confirmationCodeSha3, uint8 sigV, bytes32 sigR, bytes32 sigS)\n    public payable\n    {\n        require(bytes(name).length > 0);\n        require(bytes(country).length > 0);\n        require(bytes(state).length > 0);\n        require(bytes(city).length > 0);\n        require(bytes(location).length > 0);\n        require(bytes(zip).length > 0);\n        require(msg.value >= priceWei);\n        require(users[msg.sender].physicalAddresses.length < 2**256-1);\n\n        bytes32 data = keccak256(\n            msg.sender,\n            name,\n            country,\n            state,\n            city,\n            location,\n            zip,\n            priceWei,\n            confirmationCodeSha3\n        );\n        require(signerIsValid(data, sigV, sigR, sigS));\n\n        if (userExists(msg.sender)) {\n            // check if this address is already registered\n            bool found;\n            (found, , ) = userAddressByAddress(msg.sender, country, state, city, location, zip);\n\n            require(!found);\n        } else {\n            // new user\n            users[msg.sender].creationBlock = block.number;\n\n            totalUsers += 1;\n        }\n\n        PhysicalAddress memory pa;\n\n        pa.name = name;\n        pa.country = country;\n        pa.state = state;\n        pa.city = city;\n        pa.location = location;\n        pa.zip = zip;\n        pa.creationBlock = block.number;\n        pa.confirmationCodeSha3 = confirmationCodeSha3;\n        pa.keccakIdentifier = keccak256(country, state, city, location, zip);\n        users[msg.sender].physicalAddresses.push(pa);\n\n        totalAddresses += 1;\n\n        LogAddressRegistered(msg.sender, pa.keccakIdentifier);\n    }\n\n    function unregisterAddress(string country, string state, string city, string location, string zip)\n        public checkUserExists(msg.sender)\n    {\n        bool found;\n        uint256 index;\n        bool confirmed;\n        (found, index, confirmed) = userAddressByAddress(msg.sender, country, state, city, location, zip);\n        require(found);\n\n        bytes32 keccakIdentifier = users[msg.sender].physicalAddresses[index].keccakIdentifier;\n        registry.removeClaim(\n            address(this),\n            msg.sender,\n            keccakIdentifier\n        );\n\n        // Remove physical address from list\n        uint256 length = users[msg.sender].physicalAddresses.length;\n\n        if (index != length - 1) {\n            users[msg.sender].physicalAddresses[index] = users[msg.sender].physicalAddresses[length - 1];\n        }\n        users[msg.sender].physicalAddresses.length--;\n\n        if (users[msg.sender].physicalAddresses.length == 0) {\n            delete users[msg.sender];\n            totalUsers--;\n        }\n\n        totalAddresses--;\n        if (confirmed) {\n            totalConfirmed--;\n        }\n\n        LogAddressUnregistered(msg.sender, keccakIdentifier);\n    }\n\n    function confirmAddress(string confirmationCodePlain, uint8 sigV, bytes32 sigR, bytes32 sigS)\n    public checkUserExists(msg.sender)\n    {\n        require(bytes(confirmationCodePlain).length > 0);\n\n        bytes32 data = keccak256(\n            msg.sender,\n            confirmationCodePlain\n        );\n        require(signerIsValid(data, sigV, sigR, sigS));\n\n        bool found;\n        uint ai;\n        bool confirmed;\n        bytes32 keccakIdentifier;\n        (found, ai, confirmed, keccakIdentifier) = userAddressByConfirmationCode(\n            msg.sender,\n            keccak256(confirmationCodePlain)\n        );\n        require(found);\n        require(!confirmed);\n\n        registry.setClaim(msg.sender, keccakIdentifier, PhysicalAddressClaim.encode(block.number));\n        totalConfirmed += 1;\n\n        LogAddressConfirmed(msg.sender, keccakIdentifier);\n    }\n\n    function claimTokens(address _token, address _to) public onlyOwner {\n        require(_token != address(0));\n        require(_to != address(0));\n\n        ERC20 token = ERC20(_token);\n        uint256 balance = token.balanceOf(this);\n        token.transfer(_to, balance);\n        LogClaimedTokens(_token, _to, balance);\n    }\n}\n",
  "sourcePath": "/Users/syuhei/work/exa/poa-popa/blockchain/contracts/ProofOfPhysicalAddress.sol",
  "compiler": {
    "name": "solc",
    "version": "0.4.24+commit.e67f0147.Emscripten.clang"
  },
  "schemaVersion": "2.0.1",
  "updatedAt": "2018-07-01T01:13:22.556Z"
}